:100000000C9438000C94BB000C94BB000C94BB0007
:100010000C94BB000C94BB000C94BB000C94BB0074
:100020000C94BB000C94BB000C94BB000C94BB0064
:100030000C94BB000C94BB000C94BB000C94BB0054
:100040000C94BB000C94BB000C94BB000C94BB0044
:100050000C94BB000C94BB000C94BB000C94BB0034
:100060000C94BB000C94BB000100012300017A003A
:1000700011241FBECFEFD8E0DEBFCDBFE8E6F0E031
:1000800040E017C0B591A59135912591059107FDE7
:100090000CC095918591EF01F92FE82F05900D92F5
:1000A000A217B307D9F7FE0104C01D92A217B30728
:1000B000E1F7EF36F40731F70E9462000C9460001C
:0400C000F894FFCFE2
:1000C4008FEF87B98AB914B88BB980E090E04CC03F
:1000D4004BB121E030E0082E02C0220F331F0A94F6
:1000E400E2F7242B2BB923B1322F3270422F417007
:1000F40022FF11C0FC01EE0FFF1FE80FF91FEE0FE6
:10010400FF1FE050FF4F0190F081E02DE85EFE4FAD
:10011400208128B927C0332389F0FC01EE0FFF1F8B
:10012400E80FF91FEE0FFF1FE050FF4F0280F3812D
:10013400E02DE85EFE4F208128B914C0442389F0E5
:10014400FC01EE0FFF1FE80FF91FEE0FFF1FE05039
:10015400FF4F0480F581E02DE85EFE4F208128B931
:1001640001C018B81BB80196843091050CF4B0CFC7
:02017400ACCF0E
:040176000C940000E5
:10017A000100020003000400050006000700080051
:08018A00090000000000000064
:0B0192007E306D79335B5F707F73007F
:00000001FF
