:100000000C9434000C9456000C9456000C9456003A
:100010000C9456000C9456000C9456000C94560008
:100020000C9456000C9456000C9456000C945600F8
:100030000C9456000C9456000C9456000C945600E8
:100040000C9456000C9456000C9456000C945600D8
:100050000C9456000C9456000C9456000C945600C8
:100060000C9456000C94560011241FBECFEFD8E01C
:10007000DEBFCDBF0E9440000C943E00F894FFCF3D
:1000800084B18C6084B984B18E7F84B91899FECF15
:1000900095B18CE0892785B92FE58AEE90E0215053
:0C00A00080409040E1F700C00000F0CF6D
:0400AC000C940000B0
:00000001FF
